{
  "_format": "hh-sol-artifact-1",
  "contractName": "Exchange",
  "sourceName": "contracts/Exchange.sol",
  "abi": [
    {
      "inputs": [
        {
          "internalType": "address",
          "name": "_token",
          "type": "address"
        }
      ],
      "stateMutability": "nonpayable",
      "type": "constructor"
    },
    {
      "inputs": [
        {
          "internalType": "uint256",
          "name": "_tokenAmount",
          "type": "uint256"
        }
      ],
      "name": "addLiquidity",
      "outputs": [],
      "stateMutability": "payable",
      "type": "function"
    },
    {
      "inputs": [
        {
          "internalType": "uint256",
          "name": "_minTokens",
          "type": "uint256"
        }
      ],
      "name": "ethToTokenSwap",
      "outputs": [],
      "stateMutability": "payable",
      "type": "function"
    },
    {
      "inputs": [
        {
          "internalType": "uint256",
          "name": "_tokenSold",
          "type": "uint256"
        }
      ],
      "name": "getEthAmount",
      "outputs": [
        {
          "internalType": "uint256",
          "name": "",
          "type": "uint256"
        }
      ],
      "stateMutability": "view",
      "type": "function"
    },
    {
      "inputs": [],
      "name": "getReserve",
      "outputs": [
        {
          "internalType": "uint256",
          "name": "",
          "type": "uint256"
        }
      ],
      "stateMutability": "view",
      "type": "function"
    },
    {
      "inputs": [
        {
          "internalType": "uint256",
          "name": "_ethSold",
          "type": "uint256"
        }
      ],
      "name": "getTokenAmount",
      "outputs": [
        {
          "internalType": "uint256",
          "name": "",
          "type": "uint256"
        }
      ],
      "stateMutability": "view",
      "type": "function"
    },
    {
      "inputs": [],
      "name": "tokenAddress",
      "outputs": [
        {
          "internalType": "address",
          "name": "",
          "type": "address"
        }
      ],
      "stateMutability": "view",
      "type": "function"
    },
    {
      "inputs": [
        {
          "internalType": "uint256",
          "name": "_tokensSold",
          "type": "uint256"
        },
        {
          "internalType": "uint256",
          "name": "_minEth",
          "type": "uint256"
        }
      ],
      "name": "tokenToEthSwap",
      "outputs": [],
      "stateMutability": "nonpayable",
      "type": "function"
    }
  ],
  "bytecode": "0x60806040523480156200001157600080fd5b5060405162000e8c38038062000e8c833981810160405281019062000037919062000108565b600073ffffffffffffffffffffffffffffffffffffffff168173ffffffffffffffffffffffffffffffffffffffff161415620000aa576040517f08c379a0000000000000000000000000000000000000000000000000000000008152600401620000a1906200015b565b60405180910390fd5b806000806101000a81548173ffffffffffffffffffffffffffffffffffffffff021916908373ffffffffffffffffffffffffffffffffffffffff1602179055505062000205565b6000815190506200010281620001eb565b92915050565b6000602082840312156200011b57600080fd5b60006200012b84828501620000f1565b91505092915050565b6000620001436015836200017d565b91506200015082620001c2565b602082019050919050565b60006020820190508181036000830152620001768162000134565b9050919050565b600082825260208201905092915050565b60006200019b82620001a2565b9050919050565b600073ffffffffffffffffffffffffffffffffffffffff82169050919050565b7f696e76616c696420746f6b656e20616464726573730000000000000000000000600082015250565b620001f6816200018e565b81146200020257600080fd5b50565b610c7780620002156000396000f3fe6080604052600436106100705760003560e01c80639d76ea581161004e5780639d76ea58146100f9578063c2507ac114610124578063e0486c8a14610161578063f979dcd71461018a57610070565b806351c6590a1461007557806359bf5d39146100915780638fc7a25d146100bc575b600080fd5b61008f600480360381019061008a9190610755565b6101a6565b005b34801561009d57600080fd5b506100a6610260565b6040516100b39190610988565b60405180910390f35b3480156100c857600080fd5b506100e360048036038101906100de9190610755565b610311565b6040516100f09190610988565b60405180910390f35b34801561010557600080fd5b5061010e610374565b60405161011b919061088d565b60405180910390f35b34801561013057600080fd5b5061014b60048036038101906101469190610755565b610398565b6040516101589190610988565b60405180910390f35b34801561016d57600080fd5b50610188600480360381019061018391906107a7565b6103fb565b005b6101a4600480360381019061019f9190610755565b610556565b005b60008060009054906101000a900473ffffffffffffffffffffffffffffffffffffffff1690508073ffffffffffffffffffffffffffffffffffffffff166323b872dd3330856040518463ffffffff1660e01b8152600401610209939291906108a8565b602060405180830381600087803b15801561022357600080fd5b505af1158015610237573d6000803e3d6000fd5b505050506040513d601f19601f8201168201806040525081019061025b919061072c565b505050565b60008060009054906101000a900473ffffffffffffffffffffffffffffffffffffffff1673ffffffffffffffffffffffffffffffffffffffff166370a08231306040518263ffffffff1660e01b81526004016102bc919061088d565b60206040518083038186803b1580156102d457600080fd5b505afa1580156102e8573d6000803e3d6000fd5b505050506040513d601f19601f8201168201806040525081019061030c919061077e565b905090565b6000808211610355576040517f08c379a000000000000000000000000000000000000000000000000000000000815260040161034c90610928565b60405180910390fd5b600061035f610260565b905061036c838247610672565b915050919050565b60008054906101000a900473ffffffffffffffffffffffffffffffffffffffff1681565b60008082116103dc576040517f08c379a00000000000000000000000000000000000000000000000000000000081526004016103d390610908565b60405180910390fd5b60006103e6610260565b90506103f3834783610672565b915050919050565b6000610405610260565b90506000610414848347610672565b905082811015610459576040517f08c379a000000000000000000000000000000000000000000000000000000000815260040161045090610948565b60405180910390fd5b60008054906101000a900473ffffffffffffffffffffffffffffffffffffffff1673ffffffffffffffffffffffffffffffffffffffff166323b872dd3330876040518463ffffffff1660e01b81526004016104b6939291906108a8565b602060405180830381600087803b1580156104d057600080fd5b505af11580156104e4573d6000803e3d6000fd5b505050506040513d601f19601f82011682018060405250810190610508919061072c565b503373ffffffffffffffffffffffffffffffffffffffff166108fc829081150290604051600060405180830381858888f1935050505015801561054f573d6000803e3d6000fd5b5050505050565b6000610560610260565b9050600061057a3434476105749190610a95565b84610672565b9050828110156105bf576040517f08c379a00000000000000000000000000000000000000000000000000000000081526004016105b690610948565b60405180910390fd5b60008054906101000a900473ffffffffffffffffffffffffffffffffffffffff1673ffffffffffffffffffffffffffffffffffffffff1663a9059cbb33836040518363ffffffff1660e01b815260040161061a9291906108df565b602060405180830381600087803b15801561063457600080fd5b505af1158015610648573d6000803e3d6000fd5b505050506040513d601f19601f8201168201806040525081019061066c919061072c565b50505050565b600080831180156106835750600082115b6106c2576040517f08c379a00000000000000000000000000000000000000000000000000000000081526004016106b990610968565b60405180910390fd5b83836106ce91906109b4565b82856106da9190610a3b565b6106e49190610a0a565b90509392505050565b6000815190506106fc81610c13565b92915050565b60008135905061071181610c2a565b92915050565b60008151905061072681610c2a565b92915050565b60006020828403121561073e57600080fd5b600061074c848285016106ed565b91505092915050565b60006020828403121561076757600080fd5b600061077584828501610702565b91505092915050565b60006020828403121561079057600080fd5b600061079e84828501610717565b91505092915050565b600080604083850312156107ba57600080fd5b60006107c885828601610702565b92505060206107d985828601610702565b9150509250929050565b6107ec81610ac9565b82525050565b60006107ff6014836109a3565b915061080a82610b6f565b602082019050919050565b60006108226016836109a3565b915061082d82610b98565b602082019050919050565b6000610845601a836109a3565b915061085082610bc1565b602082019050919050565b60006108686010836109a3565b915061087382610bea565b602082019050919050565b61088781610b07565b82525050565b60006020820190506108a260008301846107e3565b92915050565b60006060820190506108bd60008301866107e3565b6108ca60208301856107e3565b6108d7604083018461087e565b949350505050565b60006040820190506108f460008301856107e3565b610901602083018461087e565b9392505050565b60006020820190508181036000830152610921816107f2565b9050919050565b6000602082019050818103600083015261094181610815565b9050919050565b6000602082019050818103600083015261096181610838565b9050919050565b600060208201905081810360008301526109818161085b565b9050919050565b600060208201905061099d600083018461087e565b92915050565b600082825260208201905092915050565b60006109bf82610b07565b91506109ca83610b07565b9250827fffffffffffffffffffffffffffffffffffffffffffffffffffffffffffffffff038211156109ff576109fe610b11565b5b828201905092915050565b6000610a1582610b07565b9150610a2083610b07565b925082610a3057610a2f610b40565b5b828204905092915050565b6000610a4682610b07565b9150610a5183610b07565b9250817fffffffffffffffffffffffffffffffffffffffffffffffffffffffffffffffff0483118215151615610a8a57610a89610b11565b5b828202905092915050565b6000610aa082610b07565b9150610aab83610b07565b925082821015610abe57610abd610b11565b5b828203905092915050565b6000610ad482610ae7565b9050919050565b60008115159050919050565b600073ffffffffffffffffffffffffffffffffffffffff82169050919050565b6000819050919050565b7f4e487b7100000000000000000000000000000000000000000000000000000000600052601160045260246000fd5b7f4e487b7100000000000000000000000000000000000000000000000000000000600052601260045260246000fd5b7f657468536f6c6420697320746f6f20736d616c6c000000000000000000000000600082015250565b7f746f6b656e536f6c6420697320746f6f20736d616c6c00000000000000000000600082015250565b7f696e73756666696369656e74206f757470757420616d6f756e74000000000000600082015250565b7f696e76616c696420726573657276657300000000000000000000000000000000600082015250565b610c1c81610adb565b8114610c2757600080fd5b50565b610c3381610b07565b8114610c3e57600080fd5b5056fea26469706673582212207521a6e9875e8db3ae1a2a72b124c881d19fa21bfea00a857523d0f25686f27164736f6c63430008040033",
  "linkReferences": {},
  "deployedLinkReferences": {}
}